{
  "abi": [
    {
      "inputs": [],
      "stateMutability": "nonpayable",
      "type": "constructor"
    },
    {
      "anonymous": false,
      "inputs": [
        {
          "indexed": false,
          "internalType": "uint256",
          "name": "id",
          "type": "uint256"
        },
        {
          "indexed": false,
          "internalType": "string",
          "name": "name",
          "type": "string"
        }
      ],
      "name": "CandidateAdded",
      "type": "event"
    },
    {
      "anonymous": false,
      "inputs": [
        {
          "indexed": false,
          "internalType": "uint256",
          "name": "timestamp",
          "type": "uint256"
        }
      ],
      "name": "VoteEnded",
      "type": "event"
    },
    {
      "anonymous": false,
      "inputs": [
        {
          "indexed": false,
          "internalType": "uint256",
          "name": "timestamp",
          "type": "uint256"
        }
      ],
      "name": "VoteOpened",
      "type": "event"
    },
    {
      "inputs": [
        {
          "internalType": "string",
          "name": "_name",
          "type": "string"
        }
      ],
      "name": "addCandidate",
      "outputs": [],
      "stateMutability": "nonpayable",
      "type": "function"
    },
    {
      "inputs": [],
      "name": "admin",
      "outputs": [
        {
          "internalType": "address",
          "name": "",
          "type": "address"
        }
      ],
      "stateMutability": "view",
      "type": "function"
    },
    {
      "inputs": [
        {
          "internalType": "uint256",
          "name": "",
          "type": "uint256"
        }
      ],
      "name": "candidatesList",
      "outputs": [
        {
          "internalType": "uint8",
          "name": "id",
          "type": "uint8"
        },
        {
          "internalType": "string",
          "name": "name",
          "type": "string"
        },
        {
          "internalType": "uint32",
          "name": "votesCount",
          "type": "uint32"
        }
      ],
      "stateMutability": "view",
      "type": "function"
    },
    {
      "inputs": [],
      "name": "electionCurrentState",
      "outputs": [
        {
          "internalType": "enum Election.ElectionState",
          "name": "",
          "type": "uint8"
        }
      ],
      "stateMutability": "view",
      "type": "function"
    },
    {
      "inputs": [],
      "name": "endVoting",
      "outputs": [],
      "stateMutability": "nonpayable",
      "type": "function"
    },
    {
      "inputs": [],
      "name": "getCandidatesList",
      "outputs": [
        {
          "components": [
            {
              "internalType": "uint8",
              "name": "id",
              "type": "uint8"
            },
            {
              "internalType": "string",
              "name": "name",
              "type": "string"
            },
            {
              "internalType": "uint32",
              "name": "votesCount",
              "type": "uint32"
            }
          ],
          "internalType": "struct Election.Candidate[]",
          "name": "",
          "type": "tuple[]"
        }
      ],
      "stateMutability": "view",
      "type": "function"
    },
    {
      "inputs": [],
      "name": "getResult",
      "outputs": [
        {
          "components": [
            {
              "internalType": "uint8",
              "name": "id",
              "type": "uint8"
            },
            {
              "internalType": "string",
              "name": "name",
              "type": "string"
            },
            {
              "internalType": "uint32",
              "name": "votesCount",
              "type": "uint32"
            }
          ],
          "internalType": "struct Election.Candidate",
          "name": "",
          "type": "tuple"
        }
      ],
      "stateMutability": "view",
      "type": "function"
    },
    {
      "inputs": [
        {
          "internalType": "address",
          "name": "_user",
          "type": "address"
        }
      ],
      "name": "getUserVote",
      "outputs": [
        {
          "internalType": "uint256",
          "name": "",
          "type": "uint256"
        }
      ],
      "stateMutability": "view",
      "type": "function"
    },
    {
      "inputs": [
        {
          "internalType": "uint256",
          "name": "_candidateId",
          "type": "uint256"
        }
      ],
      "name": "getVoteCount",
      "outputs": [
        {
          "internalType": "uint256",
          "name": "",
          "type": "uint256"
        }
      ],
      "stateMutability": "view",
      "type": "function"
    },
    {
      "inputs": [],
      "name": "numberOfCandidates",
      "outputs": [
        {
          "internalType": "uint256",
          "name": "",
          "type": "uint256"
        }
      ],
      "stateMutability": "view",
      "type": "function"
    },
    {
      "inputs": [
        {
          "internalType": "uint256",
          "name": "_voteDuration",
          "type": "uint256"
        }
      ],
      "name": "openVoting",
      "outputs": [],
      "stateMutability": "nonpayable",
      "type": "function"
    },
    {
      "inputs": [],
      "name": "totalNumberOfVoters",
      "outputs": [
        {
          "internalType": "uint256",
          "name": "",
          "type": "uint256"
        }
      ],
      "stateMutability": "view",
      "type": "function"
    },
    {
      "inputs": [
        {
          "internalType": "uint256",
          "name": "_candidateId",
          "type": "uint256"
        }
      ],
      "name": "vote",
      "outputs": [],
      "stateMutability": "nonpayable",
      "type": "function"
    },
    {
      "inputs": [],
      "name": "voteEndTimestamp",
      "outputs": [
        {
          "internalType": "uint256",
          "name": "",
          "type": "uint256"
        }
      ],
      "stateMutability": "view",
      "type": "function"
    }
  ],
  "bytecode": "60806040526000600155600060025534801561001a57600080fd5b5060008054336001600160a01b03199091161790556003805460ff19169055610fc1806100486000396000f3fe608060405234801561001057600080fd5b50600436106100ea5760003560e01c8063b2c2f2e81161008c578063dd63179711610066578063dd6317971461019b578063de292789146101b5578063df2d5ec7146101ca578063f851a440146101ec57600080fd5b8063b2c2f2e81461016d578063c3403ddf14610180578063d4923d4e1461018857600080fd5b80634aba5f34116100c85780634aba5f34146101335780635f2ba6b2146101485780639297cf8a1461015b5780639c84bb271461016457600080fd5b80630121b93f146100ef5780633852772714610104578063462e91ec14610120575b600080fd5b6101026100fd366004610c00565b610217565b005b61010d60015481565b6040519081526020015b60405180910390f35b61010261012e366004610c2f565b610377565b61013b610509565b6040516101179190610d69565b610102610156366004610c00565b61061d565b61010d60045481565b61010d60025481565b61010d61017b366004610c00565b610748565b61010261077d565b61010d610196366004610dcb565b61083b565b6003546101a89060ff1681565b6040516101179190610e11565b6101bd6108b5565b6040516101179190610e39565b6101dd6101d8366004610c00565b610aa8565b60405161011793929190610e4c565b6000546101ff906001600160a01b031681565b6040516001600160a01b039091168152602001610117565b60035460019060ff16600281111561023157610231610dfb565b81600281111561024357610243610dfb565b1461026f5760405162461bcd60e51b815260206004820152600060248201526044015b60405180910390fd5b600254821061027d57600080fd5b3360009081526006602052604090205460ff16156102cd5760405162461bcd60e51b815260206004820152600d60248201526c105b1c9958591e481d9bdd1959609a1b6044820152606401610266565b6040805180820182526001808252602080830186815233600090815260069092529390209151825460ff19169015151782559151910155600580548390811061031857610318610e7e565b600091825260208220600260039092020101805463ffffffff169161033c83610eaa565b91906101000a81548163ffffffff021916908363ffffffff160217905550506001600081548092919061036e90610ece565b91905055505050565b6000546001600160a01b031633146103a15760405162461bcd60e51b815260040161026690610ee9565b60035460009060ff1660028111156103bb576103bb610dfb565b8160028111156103cd576103cd610dfb565b146103f45760405162461bcd60e51b81526020600482015260006024820152604401610266565b6002546040805160608101825260ff80841682526020808301878152600094840185905260058054600181018255955283517f036b6384b5eca791c62761152d0c79bb0604c104a5fb6f4eb0703f3154bb3db06003909602958601805460ff19169190941617835551805193949293610494937f036b6384b5eca791c62761152d0c79bb0604c104a5fb6f4eb0703f3154bb3db101929190910190610b70565b50604091909101516002918201805463ffffffff191663ffffffff90921691909117905580549060006104c683610ece565b91905055507fe83b2a43e7e82d975c8a0a6d2f045153c869e111136a34d1889ab7b598e396a381846040516104fc929190610f17565b60405180910390a1505050565b60606005805480602002602001604051908101604052809291908181526020016000905b82821015610614576000848152602090819020604080516060810190915260038502909101805460ff168252600181018054929391929184019161057090610f38565b80601f016020809104026020016040519081016040528092919081815260200182805461059c90610f38565b80156105e95780601f106105be576101008083540402835291602001916105e9565b820191906000526020600020905b8154815290600101906020018083116105cc57829003601f168201915b50505091835250506002919091015463ffffffff16602091820152908252600192909201910161052d565b50505050905090565b6000546001600160a01b031633146106475760405162461bcd60e51b815260040161026690610ee9565b60035460009060ff16600281111561066157610661610dfb565b81600281111561067357610673610dfb565b1461069a5760405162461bcd60e51b81526020600482015260006024820152604401610266565b6005546106f75760405162461bcd60e51b815260206004820152602560248201527f43616e2774206f70656e20656c656374696f6e2077697468206e6f2063616e64604482015264696461746560d81b6064820152608401610266565b6107018242610f73565b6004556003805460ff191660011790556040514281527f13fc3791d5ac82eb7988884b4df9a5475d5e9c8fef3d981c6d9e46888929fda79060200160405180910390a15050565b60006005828154811061075d5761075d610e7e565b600091825260209091206002600390920201015463ffffffff1692915050565b6000546001600160a01b031633146107a75760405162461bcd60e51b815260040161026690610ee9565b6004544210156107f95760405162461bcd60e51b815260206004820152601760248201527f566f7465206475726174696f6e206e6f7420656e6465640000000000000000006044820152606401610266565b6003805460ff191660021790556040514281527fe12e0241ed3b6bb5b8b9e5b0c487661a72158d47e347fa539ef01a1fafcb3a3d9060200160405180910390a1565b6001600160a01b03811660009081526006602052604081205460ff166108965760405162461bcd60e51b815260206004820152601060248201526f55736572204469646e277420766f746560801b6044820152606401610266565b506001600160a01b031660009081526006602052604090206001015490565b6108e26040518060600160405280600060ff16815260200160608152602001600063ffffffff1681525090565b60035460029060ff16818111156108fb576108fb610dfb565b81600281111561090d5761090d610dfb565b146109345760405162461bcd60e51b81526020600482015260006024820152604401610266565b60008060005b6002548110156109bd57826005828154811061095857610958610e7e565b600091825260209091206002600390920201015463ffffffff1611156109ab576005818154811061098b5761098b610e7e565b600091825260209091206002600390920201015463ffffffff1692509050805b806109b581610ece565b91505061093a565b50600581815481106109d1576109d1610e7e565b60009182526020918290206040805160608101909152600390920201805460ff1682526001810180549293919291840191610a0b90610f38565b80601f0160208091040260200160405190810160405280929190818152602001828054610a3790610f38565b8015610a845780601f10610a5957610100808354040283529160200191610a84565b820191906000526020600020905b815481529060010190602001808311610a6757829003601f168201915b50505091835250506002919091015463ffffffff16602090910152935050505b5090565b60058181548110610ab857600080fd5b60009182526020909120600390910201805460018201805460ff909216935090610ae190610f38565b80601f0160208091040260200160405190810160405280929190818152602001828054610b0d90610f38565b8015610b5a5780601f10610b2f57610100808354040283529160200191610b5a565b820191906000526020600020905b815481529060010190602001808311610b3d57829003601f168201915b5050506002909301549192505063ffffffff1683565b828054610b7c90610f38565b90600052602060002090601f016020900481019282610b9e5760008555610be4565b82601f10610bb757805160ff1916838001178555610be4565b82800160010185558215610be4579182015b82811115610be4578251825591602001919060010190610bc9565b50610aa49291505b80821115610aa45760008155600101610bec565b600060208284031215610c1257600080fd5b5035919050565b634e487b7160e01b600052604160045260246000fd5b600060208284031215610c4157600080fd5b813567ffffffffffffffff80821115610c5957600080fd5b818401915084601f830112610c6d57600080fd5b813581811115610c7f57610c7f610c19565b604051601f8201601f19908116603f01168101908382118183101715610ca757610ca7610c19565b81604052828152876020848701011115610cc057600080fd5b826020860160208301376000928101602001929092525095945050505050565b6000815180845260005b81811015610d0657602081850181015186830182015201610cea565b81811115610d18576000602083870101525b50601f01601f19169290920160200192915050565b60ff81511682526000602082015160606020850152610d4f6060850182610ce0565b60409384015163ffffffff16949093019390935250919050565b6000602080830181845280855180835260408601915060408160051b870101925083870160005b82811015610dbe57603f19888603018452610dac858351610d2d565b94509285019290850190600101610d90565b5092979650505050505050565b600060208284031215610ddd57600080fd5b81356001600160a01b0381168114610df457600080fd5b9392505050565b634e487b7160e01b600052602160045260246000fd5b6020810160038310610e3357634e487b7160e01b600052602160045260246000fd5b91905290565b602081526000610df46020830184610d2d565b60ff84168152606060208201526000610e686060830185610ce0565b905063ffffffff83166040830152949350505050565b634e487b7160e01b600052603260045260246000fd5b634e487b7160e01b600052601160045260246000fd5b600063ffffffff80831681811415610ec457610ec4610e94565b6001019392505050565b6000600019821415610ee257610ee2610e94565b5060010190565b6020808252601490820152736f6e6c792061646d696e2066756e6374696f6e7360601b604082015260600190565b828152604060208201526000610f306040830184610ce0565b949350505050565b600181811c90821680610f4c57607f821691505b60208210811415610f6d57634e487b7160e01b600052602260045260246000fd5b50919050565b60008219821115610f8657610f86610e94565b50019056fea2646970667358221220fef2a744ed648e8ede4d825408035f4ecd7eb0a5650dbbb4c652affd00a040bc64736f6c63430008090033",
  "bytecodeSha1": "f767fb570fe18b1ac5dd07772efd7495f97249d1",
  "compiler": {
    "evm_version": "istanbul",
    "optimizer": {
      "enabled": true,
      "runs": 200
    },
    "version": "0.8.9+commit.e5eed63a"
  },
  "contractName": "Election",
  "language": "Solidity",
  "natspec": {
    "kind": "dev",
    "methods": {},
    "version": 1
  },
  "opcodes": "PUSH1 0x80 PUSH1 0x40 MSTORE CALLVALUE DUP1 ISZERO PUSH2 0x10 JUMPI PUSH1 0x0 DUP1 REVERT JUMPDEST POP PUSH1 0x4 CALLDATASIZE LT PUSH2 0xEA JUMPI PUSH1 0x0 CALLDATALOAD PUSH1 0xE0 SHR DUP1 PUSH4 0xB2C2F2E8 GT PUSH2 0x8C JUMPI DUP1 PUSH4 0xDD631797 GT PUSH2 0x66 JUMPI DUP1 PUSH4 0xDD631797 EQ PUSH2 0x19B JUMPI DUP1 PUSH4 0xDE292789 EQ PUSH2 0x1B5 JUMPI DUP1 PUSH4 0xDF2D5EC7 EQ PUSH2 0x1CA JUMPI DUP1 PUSH4 0xF851A440 EQ PUSH2 0x1EC JUMPI PUSH1 0x0 DUP1 REVERT JUMPDEST DUP1 PUSH4 0xB2C2F2E8 EQ PUSH2 0x16D JUMPI DUP1 PUSH4 0xC3403DDF EQ PUSH2 0x180 JUMPI DUP1 PUSH4 0xD4923D4E EQ PUSH2 0x188 JUMPI PUSH1 0x0 DUP1 REVERT JUMPDEST DUP1 PUSH4 0x4ABA5F34 GT PUSH2 0xC8 JUMPI DUP1 PUSH4 0x4ABA5F34 EQ PUSH2 0x133 JUMPI DUP1 PUSH4 0x5F2BA6B2 EQ PUSH2 0x148 JUMPI DUP1 PUSH4 0x9297CF8A EQ PUSH2 0x15B JUMPI DUP1 PUSH4 0x9C84BB27 EQ PUSH2 0x164 JUMPI PUSH1 0x0 DUP1 REVERT JUMPDEST DUP1 PUSH4 0x121B93F EQ PUSH2 0xEF JUMPI DUP1 PUSH4 0x38527727 EQ PUSH2 0x104 JUMPI DUP1 PUSH4 0x462E91EC EQ PUSH2 0x120 JUMPI JUMPDEST PUSH1 0x0 DUP1 REVERT JUMPDEST PUSH2 0x102 PUSH2 0xFD CALLDATASIZE PUSH1 0x4 PUSH2 0xC00 JUMP JUMPDEST PUSH2 0x217 JUMP JUMPDEST STOP JUMPDEST PUSH2 0x10D PUSH1 0x1 SLOAD DUP2 JUMP JUMPDEST PUSH1 0x40 MLOAD SWAP1 DUP2 MSTORE PUSH1 0x20 ADD JUMPDEST PUSH1 0x40 MLOAD DUP1 SWAP2 SUB SWAP1 RETURN JUMPDEST PUSH2 0x102 PUSH2 0x12E CALLDATASIZE PUSH1 0x4 PUSH2 0xC2F JUMP JUMPDEST PUSH2 0x377 JUMP JUMPDEST PUSH2 0x13B PUSH2 0x509 JUMP JUMPDEST PUSH1 0x40 MLOAD PUSH2 0x117 SWAP2 SWAP1 PUSH2 0xD69 JUMP JUMPDEST PUSH2 0x102 PUSH2 0x156 CALLDATASIZE PUSH1 0x4 PUSH2 0xC00 JUMP JUMPDEST PUSH2 0x61D JUMP JUMPDEST PUSH2 0x10D PUSH1 0x4 SLOAD DUP2 JUMP JUMPDEST PUSH2 0x10D PUSH1 0x2 SLOAD DUP2 JUMP JUMPDEST PUSH2 0x10D PUSH2 0x17B CALLDATASIZE PUSH1 0x4 PUSH2 0xC00 JUMP JUMPDEST PUSH2 0x748 JUMP JUMPDEST PUSH2 0x102 PUSH2 0x77D JUMP JUMPDEST PUSH2 0x10D PUSH2 0x196 CALLDATASIZE PUSH1 0x4 PUSH2 0xDCB JUMP JUMPDEST PUSH2 0x83B JUMP JUMPDEST PUSH1 0x3 SLOAD PUSH2 0x1A8 SWAP1 PUSH1 0xFF AND DUP2 JUMP JUMPDEST PUSH1 0x40 MLOAD PUSH2 0x117 SWAP2 SWAP1 PUSH2 0xE11 JUMP JUMPDEST PUSH2 0x1BD PUSH2 0x8B5 JUMP JUMPDEST PUSH1 0x40 MLOAD PUSH2 0x117 SWAP2 SWAP1 PUSH2 0xE39 JUMP JUMPDEST PUSH2 0x1DD PUSH2 0x1D8 CALLDATASIZE PUSH1 0x4 PUSH2 0xC00 JUMP JUMPDEST PUSH2 0xAA8 JUMP JUMPDEST PUSH1 0x40 MLOAD PUSH2 0x117 SWAP4 SWAP3 SWAP2 SWAP1 PUSH2 0xE4C JUMP JUMPDEST PUSH1 0x0 SLOAD PUSH2 0x1FF SWAP1 PUSH1 0x1 PUSH1 0x1 PUSH1 0xA0 SHL SUB AND DUP2 JUMP JUMPDEST PUSH1 0x40 MLOAD PUSH1 0x1 PUSH1 0x1 PUSH1 0xA0 SHL SUB SWAP1 SWAP2 AND DUP2 MSTORE PUSH1 0x20 ADD PUSH2 0x117 JUMP JUMPDEST PUSH1 0x3 SLOAD PUSH1 0x1 SWAP1 PUSH1 0xFF AND PUSH1 0x2 DUP2 GT ISZERO PUSH2 0x231 JUMPI PUSH2 0x231 PUSH2 0xDFB JUMP JUMPDEST DUP2 PUSH1 0x2 DUP2 GT ISZERO PUSH2 0x243 JUMPI PUSH2 0x243 PUSH2 0xDFB JUMP JUMPDEST EQ PUSH2 0x26F JUMPI PUSH1 0x40 MLOAD PUSH3 0x461BCD PUSH1 0xE5 SHL DUP2 MSTORE PUSH1 0x20 PUSH1 0x4 DUP3 ADD MSTORE PUSH1 0x0 PUSH1 0x24 DUP3 ADD MSTORE PUSH1 0x44 ADD JUMPDEST PUSH1 0x40 MLOAD DUP1 SWAP2 SUB SWAP1 REVERT JUMPDEST PUSH1 0x2 SLOAD DUP3 LT PUSH2 0x27D JUMPI PUSH1 0x0 DUP1 REVERT JUMPDEST CALLER PUSH1 0x0 SWAP1 DUP2 MSTORE PUSH1 0x6 PUSH1 0x20 MSTORE PUSH1 0x40 SWAP1 KECCAK256 SLOAD PUSH1 0xFF AND ISZERO PUSH2 0x2CD JUMPI PUSH1 0x40 MLOAD PUSH3 0x461BCD PUSH1 0xE5 SHL DUP2 MSTORE PUSH1 0x20 PUSH1 0x4 DUP3 ADD MSTORE PUSH1 0xD PUSH1 0x24 DUP3 ADD MSTORE PUSH13 0x105B1C9958591E481D9BDD1959 PUSH1 0x9A SHL PUSH1 0x44 DUP3 ADD MSTORE PUSH1 0x64 ADD PUSH2 0x266 JUMP JUMPDEST PUSH1 0x40 DUP1 MLOAD DUP1 DUP3 ADD DUP3 MSTORE PUSH1 0x1 DUP1 DUP3 MSTORE PUSH1 0x20 DUP1 DUP4 ADD DUP7 DUP2 MSTORE CALLER PUSH1 0x0 SWAP1 DUP2 MSTORE PUSH1 0x6 SWAP1 SWAP3 MSTORE SWAP4 SWAP1 KECCAK256 SWAP2 MLOAD DUP3 SLOAD PUSH1 0xFF NOT AND SWAP1 ISZERO ISZERO OR DUP3 SSTORE SWAP2 MLOAD SWAP2 ADD SSTORE PUSH1 0x5 DUP1 SLOAD DUP4 SWAP1 DUP2 LT PUSH2 0x318 JUMPI PUSH2 0x318 PUSH2 0xE7E JUMP JUMPDEST PUSH1 0x0 SWAP2 DUP3 MSTORE PUSH1 0x20 DUP3 KECCAK256 PUSH1 0x2 PUSH1 0x3 SWAP1 SWAP3 MUL ADD ADD DUP1 SLOAD PUSH4 0xFFFFFFFF AND SWAP2 PUSH2 0x33C DUP4 PUSH2 0xEAA JUMP JUMPDEST SWAP2 SWAP1 PUSH2 0x100 EXP DUP2 SLOAD DUP2 PUSH4 0xFFFFFFFF MUL NOT AND SWAP1 DUP4 PUSH4 0xFFFFFFFF AND MUL OR SWAP1 SSTORE POP POP PUSH1 0x1 PUSH1 0x0 DUP2 SLOAD DUP1 SWAP3 SWAP2 SWAP1 PUSH2 0x36E SWAP1 PUSH2 0xECE JUMP JUMPDEST SWAP2 SWAP1 POP SSTORE POP POP POP JUMP JUMPDEST PUSH1 0x0 SLOAD PUSH1 0x1 PUSH1 0x1 PUSH1 0xA0 SHL SUB AND CALLER EQ PUSH2 0x3A1 JUMPI PUSH1 0x40 MLOAD PUSH3 0x461BCD PUSH1 0xE5 SHL DUP2 MSTORE PUSH1 0x4 ADD PUSH2 0x266 SWAP1 PUSH2 0xEE9 JUMP JUMPDEST PUSH1 0x3 SLOAD PUSH1 0x0 SWAP1 PUSH1 0xFF AND PUSH1 0x2 DUP2 GT ISZERO PUSH2 0x3BB JUMPI PUSH2 0x3BB PUSH2 0xDFB JUMP JUMPDEST DUP2 PUSH1 0x2 DUP2 GT ISZERO PUSH2 0x3CD JUMPI PUSH2 0x3CD PUSH2 0xDFB JUMP JUMPDEST EQ PUSH2 0x3F4 JUMPI PUSH1 0x40 MLOAD PUSH3 0x461BCD PUSH1 0xE5 SHL DUP2 MSTORE PUSH1 0x20 PUSH1 0x4 DUP3 ADD MSTORE PUSH1 0x0 PUSH1 0x24 DUP3 ADD MSTORE PUSH1 0x44 ADD PUSH2 0x266 JUMP JUMPDEST PUSH1 0x2 SLOAD PUSH1 0x40 DUP1 MLOAD PUSH1 0x60 DUP2 ADD DUP3 MSTORE PUSH1 0xFF DUP1 DUP5 AND DUP3 MSTORE PUSH1 0x20 DUP1 DUP4 ADD DUP8 DUP2 MSTORE PUSH1 0x0 SWAP5 DUP5 ADD DUP6 SWAP1 MSTORE PUSH1 0x5 DUP1 SLOAD PUSH1 0x1 DUP2 ADD DUP3 SSTORE SWAP6 MSTORE DUP4 MLOAD PUSH32 0x36B6384B5ECA791C62761152D0C79BB0604C104A5FB6F4EB0703F3154BB3DB0 PUSH1 0x3 SWAP1 SWAP7 MUL SWAP6 DUP7 ADD DUP1 SLOAD PUSH1 0xFF NOT AND SWAP2 SWAP1 SWAP5 AND OR DUP4 SSTORE MLOAD DUP1 MLOAD SWAP4 SWAP5 SWAP3 SWAP4 PUSH2 0x494 SWAP4 PUSH32 0x36B6384B5ECA791C62761152D0C79BB0604C104A5FB6F4EB0703F3154BB3DB1 ADD SWAP3 SWAP2 SWAP1 SWAP2 ADD SWAP1 PUSH2 0xB70 JUMP JUMPDEST POP PUSH1 0x40 SWAP2 SWAP1 SWAP2 ADD MLOAD PUSH1 0x2 SWAP2 DUP3 ADD DUP1 SLOAD PUSH4 0xFFFFFFFF NOT AND PUSH4 0xFFFFFFFF SWAP1 SWAP3 AND SWAP2 SWAP1 SWAP2 OR SWAP1 SSTORE DUP1 SLOAD SWAP1 PUSH1 0x0 PUSH2 0x4C6 DUP4 PUSH2 0xECE JUMP JUMPDEST SWAP2 SWAP1 POP SSTORE POP PUSH32 0xE83B2A43E7E82D975C8A0A6D2F045153C869E111136A34D1889AB7B598E396A3 DUP2 DUP5 PUSH1 0x40 MLOAD PUSH2 0x4FC SWAP3 SWAP2 SWAP1 PUSH2 0xF17 JUMP JUMPDEST PUSH1 0x40 MLOAD DUP1 SWAP2 SUB SWAP1 LOG1 POP POP POP JUMP JUMPDEST PUSH1 0x60 PUSH1 0x5 DUP1 SLOAD DUP1 PUSH1 0x20 MUL PUSH1 0x20 ADD PUSH1 0x40 MLOAD SWAP1 DUP2 ADD PUSH1 0x40 MSTORE DUP1 SWAP3 SWAP2 SWAP1 DUP2 DUP2 MSTORE PUSH1 0x20 ADD PUSH1 0x0 SWAP1 JUMPDEST DUP3 DUP3 LT ISZERO PUSH2 0x614 JUMPI PUSH1 0x0 DUP5 DUP2 MSTORE PUSH1 0x20 SWAP1 DUP2 SWAP1 KECCAK256 PUSH1 0x40 DUP1 MLOAD PUSH1 0x60 DUP2 ADD SWAP1 SWAP2 MSTORE PUSH1 0x3 DUP6 MUL SWAP1 SWAP2 ADD DUP1 SLOAD PUSH1 0xFF AND DUP3 MSTORE PUSH1 0x1 DUP2 ADD DUP1 SLOAD SWAP3 SWAP4 SWAP2 SWAP3 SWAP2 DUP5 ADD SWAP2 PUSH2 0x570 SWAP1 PUSH2 0xF38 JUMP JUMPDEST DUP1 PUSH1 0x1F ADD PUSH1 0x20 DUP1 SWAP2 DIV MUL PUSH1 0x20 ADD PUSH1 0x40 MLOAD SWAP1 DUP2 ADD PUSH1 0x40 MSTORE DUP1 SWAP3 SWAP2 SWAP1 DUP2 DUP2 MSTORE PUSH1 0x20 ADD DUP3 DUP1 SLOAD PUSH2 0x59C SWAP1 PUSH2 0xF38 JUMP JUMPDEST DUP1 ISZERO PUSH2 0x5E9 JUMPI DUP1 PUSH1 0x1F LT PUSH2 0x5BE JUMPI PUSH2 0x100 DUP1 DUP4 SLOAD DIV MUL DUP4 MSTORE SWAP2 PUSH1 0x20 ADD SWAP2 PUSH2 0x5E9 JUMP JUMPDEST DUP3 ADD SWAP2 SWAP1 PUSH1 0x0 MSTORE PUSH1 0x20 PUSH1 0x0 KECCAK256 SWAP1 JUMPDEST DUP2 SLOAD DUP2 MSTORE SWAP1 PUSH1 0x1 ADD SWAP1 PUSH1 0x20 ADD DUP1 DUP4 GT PUSH2 0x5CC JUMPI DUP3 SWAP1 SUB PUSH1 0x1F AND DUP3 ADD SWAP2 JUMPDEST POP POP POP SWAP2 DUP4 MSTORE POP POP PUSH1 0x2 SWAP2 SWAP1 SWAP2 ADD SLOAD PUSH4 0xFFFFFFFF AND PUSH1 0x20 SWAP2 DUP3 ADD MSTORE SWAP1 DUP3 MSTORE PUSH1 0x1 SWAP3 SWAP1 SWAP3 ADD SWAP2 ADD PUSH2 0x52D JUMP JUMPDEST POP POP POP POP SWAP1 POP SWAP1 JUMP JUMPDEST PUSH1 0x0 SLOAD PUSH1 0x1 PUSH1 0x1 PUSH1 0xA0 SHL SUB AND CALLER EQ PUSH2 0x647 JUMPI PUSH1 0x40 MLOAD PUSH3 0x461BCD PUSH1 0xE5 SHL DUP2 MSTORE PUSH1 0x4 ADD PUSH2 0x266 SWAP1 PUSH2 0xEE9 JUMP JUMPDEST PUSH1 0x3 SLOAD PUSH1 0x0 SWAP1 PUSH1 0xFF AND PUSH1 0x2 DUP2 GT ISZERO PUSH2 0x661 JUMPI PUSH2 0x661 PUSH2 0xDFB JUMP JUMPDEST DUP2 PUSH1 0x2 DUP2 GT ISZERO PUSH2 0x673 JUMPI PUSH2 0x673 PUSH2 0xDFB JUMP JUMPDEST EQ PUSH2 0x69A JUMPI PUSH1 0x40 MLOAD PUSH3 0x461BCD PUSH1 0xE5 SHL DUP2 MSTORE PUSH1 0x20 PUSH1 0x4 DUP3 ADD MSTORE PUSH1 0x0 PUSH1 0x24 DUP3 ADD MSTORE PUSH1 0x44 ADD PUSH2 0x266 JUMP JUMPDEST PUSH1 0x5 SLOAD PUSH2 0x6F7 JUMPI PUSH1 0x40 MLOAD PUSH3 0x461BCD PUSH1 0xE5 SHL DUP2 MSTORE PUSH1 0x20 PUSH1 0x4 DUP3 ADD MSTORE PUSH1 0x25 PUSH1 0x24 DUP3 ADD MSTORE PUSH32 0x43616E2774206F70656E20656C656374696F6E2077697468206E6F2063616E64 PUSH1 0x44 DUP3 ADD MSTORE PUSH5 0x6964617465 PUSH1 0xD8 SHL PUSH1 0x64 DUP3 ADD MSTORE PUSH1 0x84 ADD PUSH2 0x266 JUMP JUMPDEST PUSH2 0x701 DUP3 TIMESTAMP PUSH2 0xF73 JUMP JUMPDEST PUSH1 0x4 SSTORE PUSH1 0x3 DUP1 SLOAD PUSH1 0xFF NOT AND PUSH1 0x1 OR SWAP1 SSTORE PUSH1 0x40 MLOAD TIMESTAMP DUP2 MSTORE PUSH32 0x13FC3791D5AC82EB7988884B4DF9A5475D5E9C8FEF3D981C6D9E46888929FDA7 SWAP1 PUSH1 0x20 ADD PUSH1 0x40 MLOAD DUP1 SWAP2 SUB SWAP1 LOG1 POP POP JUMP JUMPDEST PUSH1 0x0 PUSH1 0x5 DUP3 DUP2 SLOAD DUP2 LT PUSH2 0x75D JUMPI PUSH2 0x75D PUSH2 0xE7E JUMP JUMPDEST PUSH1 0x0 SWAP2 DUP3 MSTORE PUSH1 0x20 SWAP1 SWAP2 KECCAK256 PUSH1 0x2 PUSH1 0x3 SWAP1 SWAP3 MUL ADD ADD SLOAD PUSH4 0xFFFFFFFF AND SWAP3 SWAP2 POP POP JUMP JUMPDEST PUSH1 0x0 SLOAD PUSH1 0x1 PUSH1 0x1 PUSH1 0xA0 SHL SUB AND CALLER EQ PUSH2 0x7A7 JUMPI PUSH1 0x40 MLOAD PUSH3 0x461BCD PUSH1 0xE5 SHL DUP2 MSTORE PUSH1 0x4 ADD PUSH2 0x266 SWAP1 PUSH2 0xEE9 JUMP JUMPDEST PUSH1 0x4 SLOAD TIMESTAMP LT ISZERO PUSH2 0x7F9 JUMPI PUSH1 0x40 MLOAD PUSH3 0x461BCD PUSH1 0xE5 SHL DUP2 MSTORE PUSH1 0x20 PUSH1 0x4 DUP3 ADD MSTORE PUSH1 0x17 PUSH1 0x24 DUP3 ADD MSTORE PUSH32 0x566F7465206475726174696F6E206E6F7420656E646564000000000000000000 PUSH1 0x44 DUP3 ADD MSTORE PUSH1 0x64 ADD PUSH2 0x266 JUMP JUMPDEST PUSH1 0x3 DUP1 SLOAD PUSH1 0xFF NOT AND PUSH1 0x2 OR SWAP1 SSTORE PUSH1 0x40 MLOAD TIMESTAMP DUP2 MSTORE PUSH32 0xE12E0241ED3B6BB5B8B9E5B0C487661A72158D47E347FA539EF01A1FAFCB3A3D SWAP1 PUSH1 0x20 ADD PUSH1 0x40 MLOAD DUP1 SWAP2 SUB SWAP1 LOG1 JUMP JUMPDEST PUSH1 0x1 PUSH1 0x1 PUSH1 0xA0 SHL SUB DUP2 AND PUSH1 0x0 SWAP1 DUP2 MSTORE PUSH1 0x6 PUSH1 0x20 MSTORE PUSH1 0x40 DUP2 KECCAK256 SLOAD PUSH1 0xFF AND PUSH2 0x896 JUMPI PUSH1 0x40 MLOAD PUSH3 0x461BCD PUSH1 0xE5 SHL DUP2 MSTORE PUSH1 0x20 PUSH1 0x4 DUP3 ADD MSTORE PUSH1 0x10 PUSH1 0x24 DUP3 ADD MSTORE PUSH16 0x55736572204469646E277420766F7465 PUSH1 0x80 SHL PUSH1 0x44 DUP3 ADD MSTORE PUSH1 0x64 ADD PUSH2 0x266 JUMP JUMPDEST POP PUSH1 0x1 PUSH1 0x1 PUSH1 0xA0 SHL SUB AND PUSH1 0x0 SWAP1 DUP2 MSTORE PUSH1 0x6 PUSH1 0x20 MSTORE PUSH1 0x40 SWAP1 KECCAK256 PUSH1 0x1 ADD SLOAD SWAP1 JUMP JUMPDEST PUSH2 0x8E2 PUSH1 0x40 MLOAD DUP1 PUSH1 0x60 ADD PUSH1 0x40 MSTORE DUP1 PUSH1 0x0 PUSH1 0xFF AND DUP2 MSTORE PUSH1 0x20 ADD PUSH1 0x60 DUP2 MSTORE PUSH1 0x20 ADD PUSH1 0x0 PUSH4 0xFFFFFFFF AND DUP2 MSTORE POP SWAP1 JUMP JUMPDEST PUSH1 0x3 SLOAD PUSH1 0x2 SWAP1 PUSH1 0xFF AND DUP2 DUP2 GT ISZERO PUSH2 0x8FB JUMPI PUSH2 0x8FB PUSH2 0xDFB JUMP JUMPDEST DUP2 PUSH1 0x2 DUP2 GT ISZERO PUSH2 0x90D JUMPI PUSH2 0x90D PUSH2 0xDFB JUMP JUMPDEST EQ PUSH2 0x934 JUMPI PUSH1 0x40 MLOAD PUSH3 0x461BCD PUSH1 0xE5 SHL DUP2 MSTORE PUSH1 0x20 PUSH1 0x4 DUP3 ADD MSTORE PUSH1 0x0 PUSH1 0x24 DUP3 ADD MSTORE PUSH1 0x44 ADD PUSH2 0x266 JUMP JUMPDEST PUSH1 0x0 DUP1 PUSH1 0x0 JUMPDEST PUSH1 0x2 SLOAD DUP2 LT ISZERO PUSH2 0x9BD JUMPI DUP3 PUSH1 0x5 DUP3 DUP2 SLOAD DUP2 LT PUSH2 0x958 JUMPI PUSH2 0x958 PUSH2 0xE7E JUMP JUMPDEST PUSH1 0x0 SWAP2 DUP3 MSTORE PUSH1 0x20 SWAP1 SWAP2 KECCAK256 PUSH1 0x2 PUSH1 0x3 SWAP1 SWAP3 MUL ADD ADD SLOAD PUSH4 0xFFFFFFFF AND GT ISZERO PUSH2 0x9AB JUMPI PUSH1 0x5 DUP2 DUP2 SLOAD DUP2 LT PUSH2 0x98B JUMPI PUSH2 0x98B PUSH2 0xE7E JUMP JUMPDEST PUSH1 0x0 SWAP2 DUP3 MSTORE PUSH1 0x20 SWAP1 SWAP2 KECCAK256 PUSH1 0x2 PUSH1 0x3 SWAP1 SWAP3 MUL ADD ADD SLOAD PUSH4 0xFFFFFFFF AND SWAP3 POP SWAP1 POP DUP1 JUMPDEST DUP1 PUSH2 0x9B5 DUP2 PUSH2 0xECE JUMP JUMPDEST SWAP2 POP POP PUSH2 0x93A JUMP JUMPDEST POP PUSH1 0x5 DUP2 DUP2 SLOAD DUP2 LT PUSH2 0x9D1 JUMPI PUSH2 0x9D1 PUSH2 0xE7E JUMP JUMPDEST PUSH1 0x0 SWAP2 DUP3 MSTORE PUSH1 0x20 SWAP2 DUP3 SWAP1 KECCAK256 PUSH1 0x40 DUP1 MLOAD PUSH1 0x60 DUP2 ADD SWAP1 SWAP2 MSTORE PUSH1 0x3 SWAP1 SWAP3 MUL ADD DUP1 SLOAD PUSH1 0xFF AND DUP3 MSTORE PUSH1 0x1 DUP2 ADD DUP1 SLOAD SWAP3 SWAP4 SWAP2 SWAP3 SWAP2 DUP5 ADD SWAP2 PUSH2 0xA0B SWAP1 PUSH2 0xF38 JUMP JUMPDEST DUP1 PUSH1 0x1F ADD PUSH1 0x20 DUP1 SWAP2 DIV MUL PUSH1 0x20 ADD PUSH1 0x40 MLOAD SWAP1 DUP2 ADD PUSH1 0x40 MSTORE DUP1 SWAP3 SWAP2 SWAP1 DUP2 DUP2 MSTORE PUSH1 0x20 ADD DUP3 DUP1 SLOAD PUSH2 0xA37 SWAP1 PUSH2 0xF38 JUMP JUMPDEST DUP1 ISZERO PUSH2 0xA84 JUMPI DUP1 PUSH1 0x1F LT PUSH2 0xA59 JUMPI PUSH2 0x100 DUP1 DUP4 SLOAD DIV MUL DUP4 MSTORE SWAP2 PUSH1 0x20 ADD SWAP2 PUSH2 0xA84 JUMP JUMPDEST DUP3 ADD SWAP2 SWAP1 PUSH1 0x0 MSTORE PUSH1 0x20 PUSH1 0x0 KECCAK256 SWAP1 JUMPDEST DUP2 SLOAD DUP2 MSTORE SWAP1 PUSH1 0x1 ADD SWAP1 PUSH1 0x20 ADD DUP1 DUP4 GT PUSH2 0xA67 JUMPI DUP3 SWAP1 SUB PUSH1 0x1F AND DUP3 ADD SWAP2 JUMPDEST POP POP POP SWAP2 DUP4 MSTORE POP POP PUSH1 0x2 SWAP2 SWAP1 SWAP2 ADD SLOAD PUSH4 0xFFFFFFFF AND PUSH1 0x20 SWAP1 SWAP2 ADD MSTORE SWAP4 POP POP POP JUMPDEST POP SWAP1 JUMP JUMPDEST PUSH1 0x5 DUP2 DUP2 SLOAD DUP2 LT PUSH2 0xAB8 JUMPI PUSH1 0x0 DUP1 REVERT JUMPDEST PUSH1 0x0 SWAP2 DUP3 MSTORE PUSH1 0x20 SWAP1 SWAP2 KECCAK256 PUSH1 0x3 SWAP1 SWAP2 MUL ADD DUP1 SLOAD PUSH1 0x1 DUP3 ADD DUP1 SLOAD PUSH1 0xFF SWAP1 SWAP3 AND SWAP4 POP SWAP1 PUSH2 0xAE1 SWAP1 PUSH2 0xF38 JUMP JUMPDEST DUP1 PUSH1 0x1F ADD PUSH1 0x20 DUP1 SWAP2 DIV MUL PUSH1 0x20 ADD PUSH1 0x40 MLOAD SWAP1 DUP2 ADD PUSH1 0x40 MSTORE DUP1 SWAP3 SWAP2 SWAP1 DUP2 DUP2 MSTORE PUSH1 0x20 ADD DUP3 DUP1 SLOAD PUSH2 0xB0D SWAP1 PUSH2 0xF38 JUMP JUMPDEST DUP1 ISZERO PUSH2 0xB5A JUMPI DUP1 PUSH1 0x1F LT PUSH2 0xB2F JUMPI PUSH2 0x100 DUP1 DUP4 SLOAD DIV MUL DUP4 MSTORE SWAP2 PUSH1 0x20 ADD SWAP2 PUSH2 0xB5A JUMP JUMPDEST DUP3 ADD SWAP2 SWAP1 PUSH1 0x0 MSTORE PUSH1 0x20 PUSH1 0x0 KECCAK256 SWAP1 JUMPDEST DUP2 SLOAD DUP2 MSTORE SWAP1 PUSH1 0x1 ADD SWAP1 PUSH1 0x20 ADD DUP1 DUP4 GT PUSH2 0xB3D JUMPI DUP3 SWAP1 SUB PUSH1 0x1F AND DUP3 ADD SWAP2 JUMPDEST POP POP POP PUSH1 0x2 SWAP1 SWAP4 ADD SLOAD SWAP2 SWAP3 POP POP PUSH4 0xFFFFFFFF AND DUP4 JUMP JUMPDEST DUP3 DUP1 SLOAD PUSH2 0xB7C SWAP1 PUSH2 0xF38 JUMP JUMPDEST SWAP1 PUSH1 0x0 MSTORE PUSH1 0x20 PUSH1 0x0 KECCAK256 SWAP1 PUSH1 0x1F ADD PUSH1 0x20 SWAP1 DIV DUP2 ADD SWAP3 DUP3 PUSH2 0xB9E JUMPI PUSH1 0x0 DUP6 SSTORE PUSH2 0xBE4 JUMP JUMPDEST DUP3 PUSH1 0x1F LT PUSH2 0xBB7 JUMPI DUP1 MLOAD PUSH1 0xFF NOT AND DUP4 DUP1 ADD OR DUP6 SSTORE PUSH2 0xBE4 JUMP JUMPDEST DUP3 DUP1 ADD PUSH1 0x1 ADD DUP6 SSTORE DUP3 ISZERO PUSH2 0xBE4 JUMPI SWAP2 DUP3 ADD JUMPDEST DUP3 DUP2 GT ISZERO PUSH2 0xBE4 JUMPI DUP3 MLOAD DUP3 SSTORE SWAP2 PUSH1 0x20 ADD SWAP2 SWAP1 PUSH1 0x1 ADD SWAP1 PUSH2 0xBC9 JUMP JUMPDEST POP PUSH2 0xAA4 SWAP3 SWAP2 POP JUMPDEST DUP1 DUP3 GT ISZERO PUSH2 0xAA4 JUMPI PUSH1 0x0 DUP2 SSTORE PUSH1 0x1 ADD PUSH2 0xBEC JUMP JUMPDEST PUSH1 0x0 PUSH1 0x20 DUP3 DUP5 SUB SLT ISZERO PUSH2 0xC12 JUMPI PUSH1 0x0 DUP1 REVERT JUMPDEST POP CALLDATALOAD SWAP2 SWAP1 POP JUMP JUMPDEST PUSH4 0x4E487B71 PUSH1 0xE0 SHL PUSH1 0x0 MSTORE PUSH1 0x41 PUSH1 0x4 MSTORE PUSH1 0x24 PUSH1 0x0 REVERT JUMPDEST PUSH1 0x0 PUSH1 0x20 DUP3 DUP5 SUB SLT ISZERO PUSH2 0xC41 JUMPI PUSH1 0x0 DUP1 REVERT JUMPDEST DUP2 CALLDATALOAD PUSH8 0xFFFFFFFFFFFFFFFF DUP1 DUP3 GT ISZERO PUSH2 0xC59 JUMPI PUSH1 0x0 DUP1 REVERT JUMPDEST DUP2 DUP5 ADD SWAP2 POP DUP5 PUSH1 0x1F DUP4 ADD SLT PUSH2 0xC6D JUMPI PUSH1 0x0 DUP1 REVERT JUMPDEST DUP2 CALLDATALOAD DUP2 DUP2 GT ISZERO PUSH2 0xC7F JUMPI PUSH2 0xC7F PUSH2 0xC19 JUMP JUMPDEST PUSH1 0x40 MLOAD PUSH1 0x1F DUP3 ADD PUSH1 0x1F NOT SWAP1 DUP2 AND PUSH1 0x3F ADD AND DUP2 ADD SWAP1 DUP4 DUP3 GT DUP2 DUP4 LT OR ISZERO PUSH2 0xCA7 JUMPI PUSH2 0xCA7 PUSH2 0xC19 JUMP JUMPDEST DUP2 PUSH1 0x40 MSTORE DUP3 DUP2 MSTORE DUP8 PUSH1 0x20 DUP5 DUP8 ADD ADD GT ISZERO PUSH2 0xCC0 JUMPI PUSH1 0x0 DUP1 REVERT JUMPDEST DUP3 PUSH1 0x20 DUP7 ADD PUSH1 0x20 DUP4 ADD CALLDATACOPY PUSH1 0x0 SWAP3 DUP2 ADD PUSH1 0x20 ADD SWAP3 SWAP1 SWAP3 MSTORE POP SWAP6 SWAP5 POP POP POP POP POP JUMP JUMPDEST PUSH1 0x0 DUP2 MLOAD DUP1 DUP5 MSTORE PUSH1 0x0 JUMPDEST DUP2 DUP2 LT ISZERO PUSH2 0xD06 JUMPI PUSH1 0x20 DUP2 DUP6 ADD DUP2 ADD MLOAD DUP7 DUP4 ADD DUP3 ADD MSTORE ADD PUSH2 0xCEA JUMP JUMPDEST DUP2 DUP2 GT ISZERO PUSH2 0xD18 JUMPI PUSH1 0x0 PUSH1 0x20 DUP4 DUP8 ADD ADD MSTORE JUMPDEST POP PUSH1 0x1F ADD PUSH1 0x1F NOT AND SWAP3 SWAP1 SWAP3 ADD PUSH1 0x20 ADD SWAP3 SWAP2 POP POP JUMP JUMPDEST PUSH1 0xFF DUP2 MLOAD AND DUP3 MSTORE PUSH1 0x0 PUSH1 0x20 DUP3 ADD MLOAD PUSH1 0x60 PUSH1 0x20 DUP6 ADD MSTORE PUSH2 0xD4F PUSH1 0x60 DUP6 ADD DUP3 PUSH2 0xCE0 JUMP JUMPDEST PUSH1 0x40 SWAP4 DUP5 ADD MLOAD PUSH4 0xFFFFFFFF AND SWAP5 SWAP1 SWAP4 ADD SWAP4 SWAP1 SWAP4 MSTORE POP SWAP2 SWAP1 POP JUMP JUMPDEST PUSH1 0x0 PUSH1 0x20 DUP1 DUP4 ADD DUP2 DUP5 MSTORE DUP1 DUP6 MLOAD DUP1 DUP4 MSTORE PUSH1 0x40 DUP7 ADD SWAP2 POP PUSH1 0x40 DUP2 PUSH1 0x5 SHL DUP8 ADD ADD SWAP3 POP DUP4 DUP8 ADD PUSH1 0x0 JUMPDEST DUP3 DUP2 LT ISZERO PUSH2 0xDBE JUMPI PUSH1 0x3F NOT DUP9 DUP7 SUB ADD DUP5 MSTORE PUSH2 0xDAC DUP6 DUP4 MLOAD PUSH2 0xD2D JUMP JUMPDEST SWAP5 POP SWAP3 DUP6 ADD SWAP3 SWAP1 DUP6 ADD SWAP1 PUSH1 0x1 ADD PUSH2 0xD90 JUMP JUMPDEST POP SWAP3 SWAP8 SWAP7 POP POP POP POP POP POP POP JUMP JUMPDEST PUSH1 0x0 PUSH1 0x20 DUP3 DUP5 SUB SLT ISZERO PUSH2 0xDDD JUMPI PUSH1 0x0 DUP1 REVERT JUMPDEST DUP2 CALLDATALOAD PUSH1 0x1 PUSH1 0x1 PUSH1 0xA0 SHL SUB DUP2 AND DUP2 EQ PUSH2 0xDF4 JUMPI PUSH1 0x0 DUP1 REVERT JUMPDEST SWAP4 SWAP3 POP POP POP JUMP JUMPDEST PUSH4 0x4E487B71 PUSH1 0xE0 SHL PUSH1 0x0 MSTORE PUSH1 0x21 PUSH1 0x4 MSTORE PUSH1 0x24 PUSH1 0x0 REVERT JUMPDEST PUSH1 0x20 DUP2 ADD PUSH1 0x3 DUP4 LT PUSH2 0xE33 JUMPI PUSH4 0x4E487B71 PUSH1 0xE0 SHL PUSH1 0x0 MSTORE PUSH1 0x21 PUSH1 0x4 MSTORE PUSH1 0x24 PUSH1 0x0 REVERT JUMPDEST SWAP2 SWAP1 MSTORE SWAP1 JUMP JUMPDEST PUSH1 0x20 DUP2 MSTORE PUSH1 0x0 PUSH2 0xDF4 PUSH1 0x20 DUP4 ADD DUP5 PUSH2 0xD2D JUMP JUMPDEST PUSH1 0xFF DUP5 AND DUP2 MSTORE PUSH1 0x60 PUSH1 0x20 DUP3 ADD MSTORE PUSH1 0x0 PUSH2 0xE68 PUSH1 0x60 DUP4 ADD DUP6 PUSH2 0xCE0 JUMP JUMPDEST SWAP1 POP PUSH4 0xFFFFFFFF DUP4 AND PUSH1 0x40 DUP4 ADD MSTORE SWAP5 SWAP4 POP POP POP POP JUMP JUMPDEST PUSH4 0x4E487B71 PUSH1 0xE0 SHL PUSH1 0x0 MSTORE PUSH1 0x32 PUSH1 0x4 MSTORE PUSH1 0x24 PUSH1 0x0 REVERT JUMPDEST PUSH4 0x4E487B71 PUSH1 0xE0 SHL PUSH1 0x0 MSTORE PUSH1 0x11 PUSH1 0x4 MSTORE PUSH1 0x24 PUSH1 0x0 REVERT JUMPDEST PUSH1 0x0 PUSH4 0xFFFFFFFF DUP1 DUP4 AND DUP2 DUP2 EQ ISZERO PUSH2 0xEC4 JUMPI PUSH2 0xEC4 PUSH2 0xE94 JUMP JUMPDEST PUSH1 0x1 ADD SWAP4 SWAP3 POP POP POP JUMP JUMPDEST PUSH1 0x0 PUSH1 0x0 NOT DUP3 EQ ISZERO PUSH2 0xEE2 JUMPI PUSH2 0xEE2 PUSH2 0xE94 JUMP JUMPDEST POP PUSH1 0x1 ADD SWAP1 JUMP JUMPDEST PUSH1 0x20 DUP1 DUP3 MSTORE PUSH1 0x14 SWAP1 DUP3 ADD MSTORE PUSH20 0x6F6E6C792061646D696E2066756E6374696F6E73 PUSH1 0x60 SHL PUSH1 0x40 DUP3 ADD MSTORE PUSH1 0x60 ADD SWAP1 JUMP JUMPDEST DUP3 DUP2 MSTORE PUSH1 0x40 PUSH1 0x20 DUP3 ADD MSTORE PUSH1 0x0 PUSH2 0xF30 PUSH1 0x40 DUP4 ADD DUP5 PUSH2 0xCE0 JUMP JUMPDEST SWAP5 SWAP4 POP POP POP POP JUMP JUMPDEST PUSH1 0x1 DUP2 DUP2 SHR SWAP1 DUP3 AND DUP1 PUSH2 0xF4C JUMPI PUSH1 0x7F DUP3 AND SWAP2 POP JUMPDEST PUSH1 0x20 DUP3 LT DUP2 EQ ISZERO PUSH2 0xF6D JUMPI PUSH4 0x4E487B71 PUSH1 0xE0 SHL PUSH1 0x0 MSTORE PUSH1 0x22 PUSH1 0x4 MSTORE PUSH1 0x24 PUSH1 0x0 REVERT JUMPDEST POP SWAP2 SWAP1 POP JUMP JUMPDEST PUSH1 0x0 DUP3 NOT DUP3 GT ISZERO PUSH2 0xF86 JUMPI PUSH2 0xF86 PUSH2 0xE94 JUMP JUMPDEST POP ADD SWAP1 JUMP INVALID LOG2 PUSH5 0x6970667358 0x22 SLT KECCAK256 INVALID CALLCODE 0xA7 DIFFICULTY 0xED PUSH5 0x8E8EDE4D82 SLOAD ADDMOD SUB 0x5F 0x4E 0xCD PUSH31 0xB0A5650DBBB4C652AFFD00A040BC64736F6C63430008090033000000000000 ",
  "sha1": "59cb7cc464b707a3a3b0a530c93225e961eabceb",
  "source": "// SPDX-License-Identifier: MIT\n\npragma solidity ^0.8.0;\n\ncontract Election {\n    //--------------------------------------------------------------------\n    // VARIABLES\n\n    address public admin;\n    uint256 public totalNumberOfVoters = 0;\n    uint256 public numberOfCandidates = 0;\n\n    ElectionState public electionCurrentState;\n    uint256 public voteEndTimestamp;\n\n    enum ElectionState {\n        NOTOPENYET,\n        OPEN,\n        ENDED\n    }\n\n    struct Candidate {\n        uint8 id;\n        string name;\n        uint32 votesCount;\n    }\n\n    struct Vote {\n        bool hasVoted;\n        uint256 candidateId;\n    }\n\n    Candidate[] public candidatesList;\n    mapping(address => Vote) votes;\n\n    //--------------------------------------------------------------------\n    // EVENTS\n\n    event VoteOpened(uint256 timestamp);\n    event VoteEnded(uint256 timestamp);\n    event CandidateAdded(uint256 id, string name);\n\n    //--------------------------------------------------------------------\n    // MODIFIERS\n\n    modifier onlyAdmin() {\n        require(msg.sender == admin, \"only admin functions\");\n        _;\n    }\n\n    modifier isElectionState(ElectionState _state) {\n        require(_state == electionCurrentState, \"\");\n        _;\n    }\n\n    //--------------------------------------------------------------------\n    // CONSTRUCTOR\n\n    constructor() {\n        admin = msg.sender;\n        electionCurrentState = ElectionState.NOTOPENYET;\n    }\n\n    //--------------------------------------------------------------------\n    // FUNCTIONS\n\n    function vote(uint256 _candidateId)\n        public\n        isElectionState(ElectionState.OPEN)\n    {\n        require(_candidateId < numberOfCandidates);\n        require(!votes[msg.sender].hasVoted, \"Already voted\");\n        votes[msg.sender] = Vote(true, _candidateId);\n        candidatesList[_candidateId].votesCount++;\n        totalNumberOfVoters++;\n    }\n\n    function getVoteCount(uint256 _candidateId) public view returns (uint256) {\n        return candidatesList[_candidateId].votesCount;\n    }\n\n    function getUserVote(address _user) public view returns (uint256) {\n        require(votes[_user].hasVoted, \"User Didn't vote\");\n        return votes[_user].candidateId;\n    }\n\n    function getCandidatesList() public view returns (Candidate[] memory) {\n        return candidatesList;\n    }\n\n    function getResult()\n        public\n        view\n        isElectionState(ElectionState.ENDED)\n        returns (Candidate memory)\n    {\n        uint256 maxCount = 0;\n        uint256 winnerId = 0;\n\n        for (uint256 i = 0; i < numberOfCandidates; i++) {\n            if (candidatesList[i].votesCount > maxCount) {\n                maxCount = candidatesList[i].votesCount;\n                winnerId = i;\n            }\n        }\n        return candidatesList[winnerId];\n    }\n\n    //--------------------------------------------------------------------\n    // ADMIN FUNCTIONS\n\n    function openVoting(uint256 _voteDuration)\n        public\n        onlyAdmin\n        isElectionState(ElectionState.NOTOPENYET)\n    {\n        require(\n            candidatesList.length > 0,\n            \"Can't open election with no candidate\"\n        );\n        voteEndTimestamp = block.timestamp + _voteDuration;\n        electionCurrentState = ElectionState.OPEN;\n\n        emit VoteOpened(block.timestamp);\n    }\n\n    function addCandidate(string memory _name)\n        public\n        onlyAdmin\n        isElectionState(ElectionState.NOTOPENYET)\n    {\n        uint256 newId = numberOfCandidates;\n        candidatesList.push(Candidate(uint8(newId), _name, 0));\n        numberOfCandidates++;\n\n        emit CandidateAdded(newId, _name);\n    }\n\n    function endVoting() external onlyAdmin {\n        require(block.timestamp >= voteEndTimestamp, \"Vote duration not ended\");\n        electionCurrentState = ElectionState.ENDED;\n\n        emit VoteEnded(block.timestamp);\n    }\n}\n",
  "sourcePath": "contracts/Election.sol",
  "type": "contract"
}